{
  "_format": "hh-sol-artifact-1",
  "contractName": "NFTMarketplace",
  "sourceName": "contracts/NFTMarketplace.sol",
  "abi": [
    {
      "inputs": [],
      "stateMutability": "nonpayable",
      "type": "constructor"
    },
    {
      "anonymous": false,
      "inputs": [
        {
          "indexed": true,
          "internalType": "address",
          "name": "owner",
          "type": "address"
        },
        {
          "indexed": true,
          "internalType": "address",
          "name": "approved",
          "type": "address"
        },
        {
          "indexed": true,
          "internalType": "uint256",
          "name": "tokenId",
          "type": "uint256"
        }
      ],
      "name": "Approval",
      "type": "event"
    },
    {
      "anonymous": false,
      "inputs": [
        {
          "indexed": true,
          "internalType": "address",
          "name": "owner",
          "type": "address"
        },
        {
          "indexed": true,
          "internalType": "address",
          "name": "operator",
          "type": "address"
        },
        {
          "indexed": false,
          "internalType": "bool",
          "name": "approved",
          "type": "bool"
        }
      ],
      "name": "ApprovalForAll",
      "type": "event"
    },
    {
      "anonymous": false,
      "inputs": [
        {
          "indexed": true,
          "internalType": "uint256",
          "name": "tokenId",
          "type": "uint256"
        },
        {
          "indexed": false,
          "internalType": "address",
          "name": "seller",
          "type": "address"
        },
        {
          "indexed": false,
          "internalType": "address",
          "name": "owner",
          "type": "address"
        },
        {
          "indexed": false,
          "internalType": "uint256",
          "name": "price",
          "type": "uint256"
        },
        {
          "indexed": false,
          "internalType": "bool",
          "name": "sold",
          "type": "bool"
        }
      ],
      "name": "MarketTokenMinted",
      "type": "event"
    },
    {
      "anonymous": false,
      "inputs": [
        {
          "indexed": true,
          "internalType": "address",
          "name": "from",
          "type": "address"
        },
        {
          "indexed": true,
          "internalType": "address",
          "name": "to",
          "type": "address"
        },
        {
          "indexed": true,
          "internalType": "uint256",
          "name": "tokenId",
          "type": "uint256"
        }
      ],
      "name": "Transfer",
      "type": "event"
    },
    {
      "inputs": [
        {
          "internalType": "address",
          "name": "to",
          "type": "address"
        },
        {
          "internalType": "uint256",
          "name": "tokenId",
          "type": "uint256"
        }
      ],
      "name": "approve",
      "outputs": [],
      "stateMutability": "nonpayable",
      "type": "function"
    },
    {
      "inputs": [
        {
          "internalType": "address",
          "name": "owner",
          "type": "address"
        }
      ],
      "name": "balanceOf",
      "outputs": [
        {
          "internalType": "uint256",
          "name": "",
          "type": "uint256"
        }
      ],
      "stateMutability": "view",
      "type": "function"
    },
    {
      "inputs": [
        {
          "internalType": "uint256",
          "name": "itemId",
          "type": "uint256"
        }
      ],
      "name": "createMarketSale",
      "outputs": [],
      "stateMutability": "payable",
      "type": "function"
    },
    {
      "inputs": [],
      "name": "fetchItemsCreated",
      "outputs": [
        {
          "components": [
            {
              "internalType": "uint256",
              "name": "tokenId",
              "type": "uint256"
            },
            {
              "internalType": "address payable",
              "name": "seller",
              "type": "address"
            },
            {
              "internalType": "address payable",
              "name": "owner",
              "type": "address"
            },
            {
              "internalType": "uint256",
              "name": "price",
              "type": "uint256"
            },
            {
              "internalType": "bool",
              "name": "sold",
              "type": "bool"
            }
          ],
          "internalType": "struct NFTMarketplace.MarketToken[]",
          "name": "",
          "type": "tuple[]"
        }
      ],
      "stateMutability": "view",
      "type": "function"
    },
    {
      "inputs": [],
      "name": "fetchMarketTokens",
      "outputs": [
        {
          "components": [
            {
              "internalType": "uint256",
              "name": "tokenId",
              "type": "uint256"
            },
            {
              "internalType": "address payable",
              "name": "seller",
              "type": "address"
            },
            {
              "internalType": "address payable",
              "name": "owner",
              "type": "address"
            },
            {
              "internalType": "uint256",
              "name": "price",
              "type": "uint256"
            },
            {
              "internalType": "bool",
              "name": "sold",
              "type": "bool"
            }
          ],
          "internalType": "struct NFTMarketplace.MarketToken[]",
          "name": "",
          "type": "tuple[]"
        }
      ],
      "stateMutability": "view",
      "type": "function"
    },
    {
      "inputs": [],
      "name": "fetchMyNFTs",
      "outputs": [
        {
          "components": [
            {
              "internalType": "uint256",
              "name": "tokenId",
              "type": "uint256"
            },
            {
              "internalType": "address payable",
              "name": "seller",
              "type": "address"
            },
            {
              "internalType": "address payable",
              "name": "owner",
              "type": "address"
            },
            {
              "internalType": "uint256",
              "name": "price",
              "type": "uint256"
            },
            {
              "internalType": "bool",
              "name": "sold",
              "type": "bool"
            }
          ],
          "internalType": "struct NFTMarketplace.MarketToken[]",
          "name": "",
          "type": "tuple[]"
        }
      ],
      "stateMutability": "view",
      "type": "function"
    },
    {
      "inputs": [
        {
          "internalType": "uint256",
          "name": "tokenId",
          "type": "uint256"
        }
      ],
      "name": "getApproved",
      "outputs": [
        {
          "internalType": "address",
          "name": "",
          "type": "address"
        }
      ],
      "stateMutability": "view",
      "type": "function"
    },
    {
      "inputs": [],
      "name": "getListingPrice",
      "outputs": [
        {
          "internalType": "uint256",
          "name": "",
          "type": "uint256"
        }
      ],
      "stateMutability": "view",
      "type": "function"
    },
    {
      "inputs": [
        {
          "internalType": "address",
          "name": "owner",
          "type": "address"
        },
        {
          "internalType": "address",
          "name": "operator",
          "type": "address"
        }
      ],
      "name": "isApprovedForAll",
      "outputs": [
        {
          "internalType": "bool",
          "name": "",
          "type": "bool"
        }
      ],
      "stateMutability": "view",
      "type": "function"
    },
    {
      "inputs": [
        {
          "internalType": "string",
          "name": "tokenURI",
          "type": "string"
        },
        {
          "internalType": "uint256",
          "name": "price",
          "type": "uint256"
        }
      ],
      "name": "mintToken",
      "outputs": [
        {
          "internalType": "uint256",
          "name": "",
          "type": "uint256"
        }
      ],
      "stateMutability": "payable",
      "type": "function"
    },
    {
      "inputs": [],
      "name": "name",
      "outputs": [
        {
          "internalType": "string",
          "name": "",
          "type": "string"
        }
      ],
      "stateMutability": "view",
      "type": "function"
    },
    {
      "inputs": [
        {
          "internalType": "uint256",
          "name": "tokenId",
          "type": "uint256"
        }
      ],
      "name": "ownerOf",
      "outputs": [
        {
          "internalType": "address",
          "name": "",
          "type": "address"
        }
      ],
      "stateMutability": "view",
      "type": "function"
    },
    {
      "inputs": [
        {
          "internalType": "uint256",
          "name": "itemId",
          "type": "uint256"
        },
        {
          "internalType": "uint256",
          "name": "price",
          "type": "uint256"
        }
      ],
      "name": "resellToken",
      "outputs": [],
      "stateMutability": "payable",
      "type": "function"
    },
    {
      "inputs": [
        {
          "internalType": "address",
          "name": "from",
          "type": "address"
        },
        {
          "internalType": "address",
          "name": "to",
          "type": "address"
        },
        {
          "internalType": "uint256",
          "name": "tokenId",
          "type": "uint256"
        }
      ],
      "name": "safeTransferFrom",
      "outputs": [],
      "stateMutability": "nonpayable",
      "type": "function"
    },
    {
      "inputs": [
        {
          "internalType": "address",
          "name": "from",
          "type": "address"
        },
        {
          "internalType": "address",
          "name": "to",
          "type": "address"
        },
        {
          "internalType": "uint256",
          "name": "tokenId",
          "type": "uint256"
        },
        {
          "internalType": "bytes",
          "name": "_data",
          "type": "bytes"
        }
      ],
      "name": "safeTransferFrom",
      "outputs": [],
      "stateMutability": "nonpayable",
      "type": "function"
    },
    {
      "inputs": [
        {
          "internalType": "address",
          "name": "operator",
          "type": "address"
        },
        {
          "internalType": "bool",
          "name": "approved",
          "type": "bool"
        }
      ],
      "name": "setApprovalForAll",
      "outputs": [],
      "stateMutability": "nonpayable",
      "type": "function"
    },
    {
      "inputs": [
        {
          "internalType": "bytes4",
          "name": "interfaceId",
          "type": "bytes4"
        }
      ],
      "name": "supportsInterface",
      "outputs": [
        {
          "internalType": "bool",
          "name": "",
          "type": "bool"
        }
      ],
      "stateMutability": "view",
      "type": "function"
    },
    {
      "inputs": [],
      "name": "symbol",
      "outputs": [
        {
          "internalType": "string",
          "name": "",
          "type": "string"
        }
      ],
      "stateMutability": "view",
      "type": "function"
    },
    {
      "inputs": [
        {
          "internalType": "uint256",
          "name": "tokenId",
          "type": "uint256"
        }
      ],
      "name": "tokenURI",
      "outputs": [
        {
          "internalType": "string",
          "name": "",
          "type": "string"
        }
      ],
      "stateMutability": "view",
      "type": "function"
    },
    {
      "inputs": [
        {
          "internalType": "address",
          "name": "from",
          "type": "address"
        },
        {
          "internalType": "address",
          "name": "to",
          "type": "address"
        },
        {
          "internalType": "uint256",
          "name": "tokenId",
          "type": "uint256"
        }
      ],
      "name": "transferFrom",
      "outputs": [],
      "stateMutability": "nonpayable",
      "type": "function"
    },
    {
      "inputs": [
        {
          "internalType": "uint256",
          "name": "_listingPrice",
          "type": "uint256"
        }
      ],
      "name": "updateListingPrice",
      "outputs": [],
      "stateMutability": "payable",
      "type": "function"
    }
  ],
  "bytecode": "0x60806040526658d15e176280006009553480156200001c57600080fd5b50604080518082018252600a815269121054d213585c9ad95d60b21b602080830191825283518085019094526003845262484d5360e81b9084015281519192916200006a916000916200009b565b508051620000809060019060208401906200009b565b5050600a80546001600160a01b03191633179055506200017e565b828054620000a99062000141565b90600052602060002090601f016020900481019282620000cd576000855562000118565b82601f10620000e857805160ff191683800117855562000118565b8280016001018555821562000118579182015b8281111562000118578251825591602001919060010190620000fb565b50620001269291506200012a565b5090565b5b808211156200012657600081556001016200012b565b600181811c908216806200015657607f821691505b602082108114156200017857634e487b7160e01b600052602260045260246000fd5b50919050565b612366806200018e6000396000f3fe60806040526004361061012a5760003560e01c806395d89b41116100ab578063c046372c1161006f578063c046372c1461031c578063c69bdf751461032f578063c87b56dd14610344578063e219fc7514610364578063e985e9c514610377578063f064c32e146103c057600080fd5b806395d89b41146102a1578063a22cb465146102b6578063ae677aa3146102d6578063b88d4fde146102e9578063be9af5361461030957600080fd5b8063202e3740116100f2578063202e3740146101ff57806323b872dd1461022157806342842e0e146102415780636352211e1461026157806370a082311461028157600080fd5b806301ffc9a71461012f57806306fdde0314610164578063081812fc14610186578063095ea7b3146101be57806312e85585146101e0575b600080fd5b34801561013b57600080fd5b5061014f61014a366004611f27565b6103d5565b60405190151581526020015b60405180910390f35b34801561017057600080fd5b50610179610427565b60405161015b9190612102565b34801561019257600080fd5b506101a66101a1366004611fb5565b6104b9565b6040516001600160a01b03909116815260200161015b565b3480156101ca57600080fd5b506101de6101d9366004611efe565b610546565b005b3480156101ec57600080fd5b506009545b60405190815260200161015b565b34801561020b57600080fd5b5061021461065c565b60405161015b9190612086565b34801561022d57600080fd5b506101de61023c366004611e10565b610857565b34801561024d57600080fd5b506101de61025c366004611e10565b610888565b34801561026d57600080fd5b506101a661027c366004611fb5565b6108a3565b34801561028d57600080fd5b506101f161029c366004611dc4565b61091a565b3480156102ad57600080fd5b506101796109a1565b3480156102c257600080fd5b506101de6102d1366004611ec4565b6109b0565b6101de6102e4366004611fb5565b6109bf565b3480156102f557600080fd5b506101de610304366004611e4b565b610a37565b6101de610317366004611fb5565b610a6f565b6101f161032a366004611f5f565b610bd4565b34801561033b57600080fd5b50610214610c16565b34801561035057600080fd5b5061017961035f366004611fb5565b610dc1565b6101de610372366004611fcd565b610f38565b34801561038357600080fd5b5061014f610392366004611dde565b6001600160a01b03918216600090815260056020908152604080832093909416825291909152205460ff1690565b3480156103cc57600080fd5b50610214611030565b60006001600160e01b031982166380ac58cd60e01b148061040657506001600160e01b03198216635b5e139f60e01b145b8061042157506301ffc9a760e01b6001600160e01b03198316145b92915050565b6060600080546104369061226b565b80601f01602080910402602001604051908101604052809291908181526020018280546104629061226b565b80156104af5780601f10610484576101008083540402835291602001916104af565b820191906000526020600020905b81548152906001019060200180831161049257829003601f168201915b5050505050905090565b60006104c482611222565b61052a5760405162461bcd60e51b815260206004820152602c60248201527f4552433732313a20617070726f76656420717565727920666f72206e6f6e657860448201526b34b9ba32b73a103a37b5b2b760a11b60648201526084015b60405180910390fd5b506000908152600460205260409020546001600160a01b031690565b6000610551826108a3565b9050806001600160a01b0316836001600160a01b031614156105bf5760405162461bcd60e51b815260206004820152602160248201527f4552433732313a20617070726f76616c20746f2063757272656e74206f776e656044820152603960f91b6064820152608401610521565b336001600160a01b03821614806105db57506105db8133610392565b61064d5760405162461bcd60e51b815260206004820152603860248201527f4552433732313a20617070726f76652063616c6c6572206973206e6f74206f7760448201527f6e6572206e6f7220617070726f76656420666f7220616c6c00000000000000006064820152608401610521565b610657838361123f565b505050565b6060600061066960075490565b905060008060005b838110156106cc5733600b60006106898460016121fc565b81526020810191909152604001600020600201546001600160a01b031614156106ba576106b76001846121fc565b92505b806106c4816122a6565b915050610671565b5060008267ffffffffffffffff8111156106f657634e487b7160e01b600052604160045260246000fd5b60405190808252806020026020018201604052801561074f57816020015b6040805160a0810182526000808252602080830182905292820181905260608201819052608082015282526000199092019101816107145790505b50905060005b8481101561084e5733600b600061076d8460016121fc565b81526020810191909152604001600020600201546001600160a01b0316141561083c57600061079d8260016121fc565b6000818152600b6020908152604091829020825160a0810184528154815260018201546001600160a01b039081169382019390935260028201549092169282019290925260038201546060820152600482015460ff16151560808201528551929350909185908790811061082157634e487b7160e01b600052603260045260246000fd5b60209081029190910101526108376001866121fc565b945050505b80610846816122a6565b915050610755565b50949350505050565b61086133826112ad565b61087d5760405162461bcd60e51b8152600401610521906121ab565b610657838383611393565b61065783838360405180602001604052806000815250610a37565b6000818152600260205260408120546001600160a01b0316806104215760405162461bcd60e51b815260206004820152602960248201527f4552433732313a206f776e657220717565727920666f72206e6f6e657869737460448201526832b73a103a37b5b2b760b91b6064820152608401610521565b60006001600160a01b0382166109855760405162461bcd60e51b815260206004820152602a60248201527f4552433732313a2062616c616e636520717565727920666f7220746865207a65604482015269726f206164647265737360b01b6064820152608401610521565b506001600160a01b031660009081526003602052604090205490565b6060600180546104369061226b565b6109bb33838361152f565b5050565b600a546001600160a01b03163314610a325760405162461bcd60e51b815260206004820152603060248201527f4f6e6c79206d61726b6574706c616365206f776e65722063616e20757064617460448201526f32903634b9ba34b73390383934b1b29760811b6064820152608401610521565b600955565b610a4133836112ad565b610a5d5760405162461bcd60e51b8152600401610521906121ab565b610a69848484846115fe565b50505050565b6000818152600b6020526040902060038101546001909101546001600160a01b0316348214610b08576040805162461bcd60e51b81526020600482015260248101919091527f506c65617365207375626d6974207468652061736b696e67207072696365206960448201527f6e206f7264657220746f20636f6d706c657465207468652070757263686173656064820152608401610521565b6000838152600b602052604090206002810180546001600160a01b0319908116331790915560048201805460ff1916600190811790915590910180549091169055610b57600880546001019055565b610b62303385611393565b600a546009546040516001600160a01b039092169181156108fc0291906000818181858888f19350505050158015610b9e573d6000803e3d6000fd5b506040516001600160a01b038216903480156108fc02916000818181858888f19350505050158015610a69573d6000803e3d6000fd5b6000610be4600780546001019055565b6000610bef60075490565b9050610bfb3382611631565b610c058185611764565b610c0f81846117ef565b9392505050565b60606000610c2360075490565b90506000610c3060085490565b600754610c3d9190612228565b90506000808267ffffffffffffffff811115610c6957634e487b7160e01b600052604160045260246000fd5b604051908082528060200260200182016040528015610cc257816020015b6040805160a081018252600080825260208083018290529282018190526060820181905260808201528252600019909201910181610c875790505b50905060005b8481101561084e5730600b6000610ce08460016121fc565b81526020810191909152604001600020600201546001600160a01b03161415610daf576000610d108260016121fc565b6000818152600b6020908152604091829020825160a0810184528154815260018201546001600160a01b039081169382019390935260028201549092169282019290925260038201546060820152600482015460ff161515608082015285519293509091859087908110610d9457634e487b7160e01b600052603260045260246000fd5b6020908102919091010152610daa6001866121fc565b945050505b80610db9816122a6565b915050610cc8565b6060610dcc82611222565b610e325760405162461bcd60e51b815260206004820152603160248201527f45524337323155524953746f726167653a2055524920717565727920666f72206044820152703737b732bc34b9ba32b73a103a37b5b2b760791b6064820152608401610521565b60008281526006602052604081208054610e4b9061226b565b80601f0160208091040260200160405190810160405280929190818152602001828054610e779061226b565b8015610ec45780601f10610e9957610100808354040283529160200191610ec4565b820191906000526020600020905b815481529060010190602001808311610ea757829003601f168201915b505050505090506000610ee260408051602081019091526000815290565b9050805160001415610ef5575092915050565b815115610f27578082604051602001610f0f92919061201a565b60405160208183030381529060405292505050919050565b610f3084611944565b949350505050565b6000828152600b60205260409020600201546001600160a01b03163314610fb45760405162461bcd60e51b815260206004820152602a60248201527f4f6e6c79206974656d206f776e65722063616e20706572666f726d20746869736044820152691037b832b930ba34b7b760b11b6064820152608401610521565b6009543414610fd55760405162461bcd60e51b815260040161052190612167565b6000828152600b6020526040902060048101805460ff19169055600381018290556001810180546001600160a01b0319908116331790915560029091018054909116301790556110256008611a1b565b6109bb333084611393565b6060600061103d60075490565b905060008060005b838110156110a05733600b600061105d8460016121fc565b81526020810191909152604001600020600101546001600160a01b0316141561108e5761108b6001846121fc565b92505b80611098816122a6565b915050611045565b5060008267ffffffffffffffff8111156110ca57634e487b7160e01b600052604160045260246000fd5b60405190808252806020026020018201604052801561112357816020015b6040805160a0810182526000808252602080830182905292820181905260608201819052608082015282526000199092019101816110e85790505b50905060005b8481101561084e5733600b60006111418460016121fc565b81526020810191909152604001600020600101546001600160a01b031614156112105760006111718260016121fc565b6000818152600b6020908152604091829020825160a0810184528154815260018201546001600160a01b039081169382019390935260028201549092169282019290925260038201546060820152600482015460ff1615156080820152855192935090918590879081106111f557634e487b7160e01b600052603260045260246000fd5b602090810291909101015261120b6001866121fc565b945050505b8061121a816122a6565b915050611129565b6000908152600260205260409020546001600160a01b0316151590565b600081815260046020526040902080546001600160a01b0319166001600160a01b0384169081179091558190611274826108a3565b6001600160a01b03167f8c5be1e5ebec7d5bd14f71427d1e84f3dd0314c0f7b2291e5b200ac8c7c3b92560405160405180910390a45050565b60006112b882611222565b6113195760405162461bcd60e51b815260206004820152602c60248201527f4552433732313a206f70657261746f7220717565727920666f72206e6f6e657860448201526b34b9ba32b73a103a37b5b2b760a11b6064820152608401610521565b6000611324836108a3565b9050806001600160a01b0316846001600160a01b0316148061135f5750836001600160a01b0316611354846104b9565b6001600160a01b0316145b80610f3057506001600160a01b0380821660009081526005602090815260408083209388168352929052205460ff16610f30565b826001600160a01b03166113a6826108a3565b6001600160a01b03161461140a5760405162461bcd60e51b815260206004820152602560248201527f4552433732313a207472616e736665722066726f6d20696e636f72726563742060448201526437bbb732b960d91b6064820152608401610521565b6001600160a01b03821661146c5760405162461bcd60e51b8152602060048201526024808201527f4552433732313a207472616e7366657220746f20746865207a65726f206164646044820152637265737360e01b6064820152608401610521565b61147760008261123f565b6001600160a01b03831660009081526003602052604081208054600192906114a0908490612228565b90915550506001600160a01b03821660009081526003602052604081208054600192906114ce9084906121fc565b909155505060008181526002602052604080822080546001600160a01b0319166001600160a01b0386811691821790925591518493918716917fddf252ad1be2c89b69c2b068fc378daa952ba7f163c4a11628f55a4df523b3ef91a4505050565b816001600160a01b0316836001600160a01b031614156115915760405162461bcd60e51b815260206004820152601960248201527f4552433732313a20617070726f766520746f2063616c6c6572000000000000006044820152606401610521565b6001600160a01b03838116600081815260056020908152604080832094871680845294825291829020805460ff191686151590811790915591519182527f17307eab39ab6107e8899845ad3d59bd9653f200f220920489ca2b5937696c31910160405180910390a3505050565b611609848484611393565b61161584848484611a72565b610a695760405162461bcd60e51b815260040161052190612115565b6001600160a01b0382166116875760405162461bcd60e51b815260206004820181905260248201527f4552433732313a206d696e7420746f20746865207a65726f20616464726573736044820152606401610521565b61169081611222565b156116dd5760405162461bcd60e51b815260206004820152601c60248201527f4552433732313a20746f6b656e20616c7265616479206d696e746564000000006044820152606401610521565b6001600160a01b03821660009081526003602052604081208054600192906117069084906121fc565b909155505060008181526002602052604080822080546001600160a01b0319166001600160a01b03861690811790915590518392907fddf252ad1be2c89b69c2b068fc378daa952ba7f163c4a11628f55a4df523b3ef908290a45050565b61176d82611222565b6117d05760405162461bcd60e51b815260206004820152602e60248201527f45524337323155524953746f726167653a2055524920736574206f66206e6f6e60448201526d32bc34b9ba32b73a103a37b5b2b760911b6064820152608401610521565b6000828152600660209081526040909120825161065792840190611c99565b6000811161183f5760405162461bcd60e51b815260206004820152601c60248201527f5072696365206d757374206265206174206c65617374203120776569000000006044820152606401610521565b60095434146118605760405162461bcd60e51b815260040161052190612167565b6040805160a08101825283815233602080830182815230848601818152606086018881526000608088018181528b8252600b909652979097209551865591516001860180546001600160a01b03199081166001600160a01b0393841617909155925160028701805490941691161790915593516003840155516004909201805460ff1916921515929092179091556118f89184611393565b604080513381523060208201529081018290526000606082015282907efe8e87fb096080d6461cbbfb35b2ef81a83196d725e403f2ae6c960c9b7dac9060800160405180910390a25050565b606061194f82611222565b6119b35760405162461bcd60e51b815260206004820152602f60248201527f4552433732314d657461646174613a2055524920717565727920666f72206e6f60448201526e3732bc34b9ba32b73a103a37b5b2b760891b6064820152608401610521565b60006119ca60408051602081019091526000815290565b905060008151116119ea5760405180602001604052806000815250610c0f565b806119f484611b7f565b604051602001611a0592919061201a565b6040516020818303038152906040529392505050565b805480611a6a5760405162461bcd60e51b815260206004820152601b60248201527f436f756e7465723a2064656372656d656e74206f766572666c6f7700000000006044820152606401610521565b600019019055565b60006001600160a01b0384163b15611b7457604051630a85bd0160e11b81526001600160a01b0385169063150b7a0290611ab6903390899088908890600401612049565b602060405180830381600087803b158015611ad057600080fd5b505af1925050508015611b00575060408051601f3d908101601f19168201909252611afd91810190611f43565b60015b611b5a573d808015611b2e576040519150601f19603f3d011682016040523d82523d6000602084013e611b33565b606091505b508051611b525760405162461bcd60e51b815260040161052190612115565b805181602001fd5b6001600160e01b031916630a85bd0160e11b149050610f30565b506001949350505050565b606081611ba35750506040805180820190915260018152600360fc1b602082015290565b8160005b8115611bcd5780611bb7816122a6565b9150611bc69050600a83612214565b9150611ba7565b60008167ffffffffffffffff811115611bf657634e487b7160e01b600052604160045260246000fd5b6040519080825280601f01601f191660200182016040528015611c20576020820181803683370190505b5090505b8415610f3057611c35600183612228565b9150611c42600a866122c1565b611c4d9060306121fc565b60f81b818381518110611c7057634e487b7160e01b600052603260045260246000fd5b60200101906001600160f81b031916908160001a905350611c92600a86612214565b9450611c24565b828054611ca59061226b565b90600052602060002090601f016020900481019282611cc75760008555611d0d565b82601f10611ce057805160ff1916838001178555611d0d565b82800160010185558215611d0d579182015b82811115611d0d578251825591602001919060010190611cf2565b50611d19929150611d1d565b5090565b5b80821115611d195760008155600101611d1e565b600067ffffffffffffffff80841115611d4d57611d4d612301565b604051601f8501601f19908116603f01168101908282118183101715611d7557611d75612301565b81604052809350858152868686011115611d8e57600080fd5b858560208301376000602087830101525050509392505050565b80356001600160a01b0381168114611dbf57600080fd5b919050565b600060208284031215611dd5578081fd5b610c0f82611da8565b60008060408385031215611df0578081fd5b611df983611da8565b9150611e0760208401611da8565b90509250929050565b600080600060608486031215611e24578081fd5b611e2d84611da8565b9250611e3b60208501611da8565b9150604084013590509250925092565b60008060008060808587031215611e60578081fd5b611e6985611da8565b9350611e7760208601611da8565b925060408501359150606085013567ffffffffffffffff811115611e99578182fd5b8501601f81018713611ea9578182fd5b611eb887823560208401611d32565b91505092959194509250565b60008060408385031215611ed6578182fd5b611edf83611da8565b915060208301358015158114611ef3578182fd5b809150509250929050565b60008060408385031215611f10578182fd5b611f1983611da8565b946020939093013593505050565b600060208284031215611f38578081fd5b8135610c0f81612317565b600060208284031215611f54578081fd5b8151610c0f81612317565b60008060408385031215611f71578182fd5b823567ffffffffffffffff811115611f87578283fd5b8301601f81018513611f97578283fd5b611fa685823560208401611d32565b95602094909401359450505050565b600060208284031215611fc6578081fd5b5035919050565b60008060408385031215611fdf578182fd5b50508035926020909101359150565b6000815180845261200681602086016020860161223f565b601f01601f19169290920160200192915050565b6000835161202c81846020880161223f565b83519083019061204081836020880161223f565b01949350505050565b6001600160a01b038581168252841660208201526040810183905260806060820181905260009061207c90830184611fee565b9695505050505050565b602080825282518282018190526000919060409081850190868401855b828110156120f557815180518552868101516001600160a01b03908116888701528682015116868601526060808201519086015260809081015115159085015260a090930192908501906001016120a3565b5091979650505050505050565b602081526000610c0f6020830184611fee565b60208082526032908201527f4552433732313a207472616e7366657220746f206e6f6e20455243373231526560408201527131b2b4bb32b91034b6b83632b6b2b73a32b960711b606082015260800190565b60208082526024908201527f5072696365206d75737420626520657175616c20746f206c697374696e6720706040820152637269636560e01b606082015260800190565b60208082526031908201527f4552433732313a207472616e736665722063616c6c6572206973206e6f74206f6040820152701ddb995c881b9bdc88185c1c1c9bdd9959607a1b606082015260800190565b6000821982111561220f5761220f6122d5565b500190565b600082612223576122236122eb565b500490565b60008282101561223a5761223a6122d5565b500390565b60005b8381101561225a578181015183820152602001612242565b83811115610a695750506000910152565b600181811c9082168061227f57607f821691505b602082108114156122a057634e487b7160e01b600052602260045260246000fd5b50919050565b60006000198214156122ba576122ba6122d5565b5060010190565b6000826122d0576122d06122eb565b500690565b634e487b7160e01b600052601160045260246000fd5b634e487b7160e01b600052601260045260246000fd5b634e487b7160e01b600052604160045260246000fd5b6001600160e01b03198116811461232d57600080fd5b5056fea2646970667358221220c7eba1787e15bc706c2188bf9a72e32697bb2bc313fd094e61932aa933a6a08164736f6c63430008040033",
  "linkReferences": {},
  "deployedLinkReferences": {}
}